:020000040300F7
:04000000BD957EA389
:100004006F0040546F0080486F0040486F00004804
:100014006F00C0476F0080476F0040476F00004784
:100024006F00C0466F0080466F0040466F00004678
:100034006F00C0456F0080456F0040456F0000456C
:100044006F00C0446F0080446F0040446F00004460
:100054006F00C0436F0080436F0040436F00004354
:100064006F00C0426F0080426F0040426F00402624
:100074006F0000266F00C0256F0080256F004025AB
:100084006F0000256F00C0246F0080246F0040249F
:100094006F0000246F00C0236F0080236F00402393
:1000A4006F0000236F00C0226F0080226F00402287
:1000B4006F0000226F00C0216F0080216F0040217B
:1000C4006F0000216F00C0206F0080206F0040206F
:1000D4006F0000206F00C01F6F00801F6F00401F63
:1000E4006F00001F6F00C01E6F00801E6F00401E57
:1000F4006F00001E6F00C01D6F00801D6F00401D4B
:100104006F00001D6F00C01C6F00801C6F00401C3E
:100114006F00001C6F00C01B6F00801B6F00401B32
:100124006F00001B6F00C01A6F00801A6F00401A26
:100134006F00001A6F00C0196F0080196F0040191A
:100144006F0000196F00C0186F0080186F0040180E
:100154006F0000186F00C0176F0080176F00401702
:100164006F0000176F00C0166F0080166F004016F6
:100174006F0000166F00C0156F0080156F004015EA
:100184006F0000156F00C0146F0080146F004014DE
:100194006F0000146F00C0136F0080136F004013D2
:1001A4006F0000136F00C0126F0080126F004012C6
:1001B4006F0000126F00C0116F0080116F004011BA
:1001C4006F0000116F00C0106F0080106F004010AE
:1001D4006F0000106F00C00F6F00800F6F00400FA2
:1001E4006F00000F6F00C00E6F00800E130101F945
:1001F400232081042322910423242105232631056D
:1002040023284105232A5105232C6105232E71053A
:1002140023208107232291072324A1072326B10742
:10022400930501112328B106232A3106232C410604
:1002340073251034F325003073263034F32620342C
:10024400232EA1062320B1082322C1082324D10888
:1002540013050100EF20907101A0130000001301A9
:1002640001F9232081042322910423242105232638
:10027400310523284105232A5105232C6105232E0A
:10028400710523208107232291072324A107232614
:10029400B107930501112328B106232A3106232C23
:1002A400410673251034F325003073263034F326C9
:1002B4002034232EA1062320B1082322C10823249D
:1002C400D1081305010073700430EF20506801A0B9
:1002D400130101F62326A1002328B100138541A8A8
:1002E40083250500938515002320B5007325D07E52
:1002F400F325E0BF7310E5BF232CB100F3250030D4
:10030400232EB100F32510342320B10273252034A9
:10031400B72500009385058073A00530970500007C
:100324009385050173901534730020302320510008
:100334002322610023247100232AC10023221102F5
:100344002324D1022326E1022328F102232A0103D4
:10035400232C1103232EC1032320D1052322E105DD
:100364002324F1052726010427281104272A210420
:10037400272C3104272E4104272051062722610609
:10038400272471062726A1062728B106272AC10695
:10039400272CD106272EE1062720F1082722010960
:1003A400272411092726C1092728D109272AE10969
:1003B400272CF1091375F50FEF203030032341008A
:1003C4008323810003264101832041028326810285
:1003D4000327C102832701030328410383288103E0
:1003E400032EC103832E0104032F4104832F8104B0
:1003F4000720C104872001050721410587218105C4
:100404000722C105872201060723410687238106A7
:100414000725C10687250107072641078726810787
:100424000727C1078727010807284108872881086B
:10043400072EC108872E0109072F4109872F81093B
:100444000325C101F32200308325010293F28200C7
:100454003B920200137575F7731005308322010077
:1004640073901534032581017310E5BF138541A8EA
:10047400832505009385F5FF2320B500832501011D
:100484000325C1001301010A73002030130101F692
:100494008B1FF1FF130101F6732520341303B00001
:1004A400630C650213038000630C6504B7050080C8
:1004B4001306F00FB375B5003375C5001306C000FD
:1004C400E306C5D2E38D05D81301010A8B0FF1FFB2
:1004D4001301010A73002030B723000093830380C3
:1004E40073B00330F32210349382420073901234B9
:1004F4001301010A8B0FF1FF1301010A730020306D
:10050400B72300009383038073A00330F3221034D5
:1005140093824200739012341301010A8B0FF1FF8E
:100524001301010A7300203063DC7200032E030000
:1005340023A0C20193824200130343006FF0DFFE45
:100544006780000073500030735040307370043083
:1005540097020000938242AB938212007390523050
:1005640073D0F07EB702711403A302121363130055
:1005740023A0621203A342121363130023A2621284
:10058400B7C2DCFE938282A93703711413030320DC
:1005940023205300970100019381811617710001F4
:1005A40013010166B70230149382820003A3020090
:1005B4001373030223A06200B702001413030000A4
:1005C40023A2620223A4620223A6620223A8620277
:1005D40023A46204B78210109382023003A30200A2
:1005E4001363130023A06200938201901783000118
:1005F400130303A19303000023A07200938242001B
:10060400E3CC62FE970200FF9382829F17030000EF
:1006140013038312970300FF9383839EEFF0DFF0AD
:100624009382019017030000130303119383019035
:10063400EFF09FEF93820190171301001303431D02
:10064400938341A8EFF05FEEB7120000938202B0EB
:100654007390023BB7024000938202407390123BB6
:10066400B70280007390223BB72280007390323B24
:10067400B702C0007390423BB70200017390523B33
:10068400B72200017390623BB702000793820240D5
:100694007390723BB73233F3938232337390827D1B
:1006A400B712080D9382B2D87390023AB7120B0BAB
:1006B400938282D07390123A7350007C0F00F00F33
:1006C4007350107C0F00F00FB72200009382820059
:1006D40073A002309302000273A01230B7121111FA
:1006E40093821211739002BC739012BC739022BC5B
:1006F400739032BC739042BC739052BC739062BCD2
:10070400739072BC739082BC739092BC7390A2BCC1
:100714007390B2BC7390C2BC7390D2BC7390E2BCB1
:100724007390F2BC73000000EF004001EFC0A00022
:040734006F00000052
:10073800411122C6000801A0011106CE22CC0010EA
:100748009307C4FE3E85EFC0C057AA8791C3CD3733
:100758008327C4FE3E85EF002079EF00300583270C
:10076800C4FE3E85A125EF204079D523412B010009
:10077800F240624405618280011122CE00102326D6
:10078800A4FE8327C4FE53F717D0B717010387A722
:10079800C7A6D377F71827A0F19001007244056126
:1007A8008280797106D622D40018930704FE3E860B
:1007B800914501459123930704FD3E8689450145EE
:1007C800252B032704FEB797A55A938797666317C7
:1007D800F700032704FDFD576314F700814711A0B4
:1007E80085473E85B2502254456182801D7186CE70
:1007F800A2CC80109307C4FD3E86D1450145ED2962
:10080800370710188327C4FDC183FD9B93F6F70FA4
:100818003C4393F6F60F93F707F0D58F3CC33707A1
:1008280010188327C4FDA183FD9B93F6F70F3C4363
:1008380093F6F60FA20641761306F60FF18FD58FC1
:100848003CC3370710188327C4FD93F6F70F3C43C2
:1008580093F6F60FC206370601FF7D16F18FD58F86
:100868003CC3832704FEC183FD9B819F2326F4FE9E
:10087800832704FEA183FD9B819FA2073E878327D0
:10088800C4FED98F2326F4FE832704FE819FC20766
:100898003E878327C4FED98F2326F4FE8327C4FD11
:1008A800E183819FE2073E878327C4FED98F2326F1
:1008B800F4FEB70710180327C4FEF8C39307C4FC57
:1008C8003E86D54501450D2937070018832704FDC5
:1008D800BE868967FD17F58F1396070141828567E4
:1008E8003E97832747808966FD16F18EC206370634
:1008F80001E07D16F18FD58F2322F7803707001886
:10090800832704FDC183BE868567FD17F58F13967F
:100918000701418285673E97832747808566FD16D4
:10092800F18E7D76F18FD58F2322F780832704FE01
:10093800E18313F7F70FB707501898CB370700185C
:10094800832744FDBE868567FD17F58F139607013B
:10095800418285673E97832707808566FD16F18E5D
:100968007D76F18FD58F2320F780832784FDA5839B
:100978003E851935370720188327C4FC93F7F71FDE
:1009880093960701C1821C5393F6F61F93F707E06D
:10099800D58F1CD3371720188327C4FCC18393F73E
:1009A800F71F93960701C1821C5393F6F61F93F71E
:1009B80007E0D58F1CD39307C4FB3E86D945014574
:1009C8007D25370700188327C4FBBE868967FD1776
:1009D800F58F13960701418285673E978327078124
:1009E8008966FD16F18EC206370601E07D16F18F85
:1009F800D58F2328F780370700188327C4FBC183C6
:100A0800BE868567FD17F58F1396070141828567B6
:100A18003E97832707818566FD16F18E7D76F18FD7
:100A2800D58F2328F78037070018832704FCBE8654
:100A38008967FD17F58F13960701418285673E97F1
:100A4800832747818966FD16F18EC206370601E0C5
:100A58007D16F18FD58F232AF78037070018832753
:100A680004FCC183BE868567FD17F58F13960701C1
:100A7800418285673E97832747818566FD16F18EFB
:100A88007D76F18FD58F232AF780370700188327C3
:100A980044FCBE868967FD17F58F139607014182CE
:100AA80085673E97832787818966FD16F18EC20682
:100AB800370601E07D16F18FD58F232CF780370795
:100AC8000018832744FCC183BE868567FD17F58F10
:100AD80013960701418285673E978327878185663C
:100AE800FD16F18E7D76F18FD58F232CF780370791
:100AF8000018832784FCBE868967FD17F58F139637
:100B08000701418285673E978327C7818966FD165D
:100B1800F18EC206370601E07D16F18FD58F232EA0
:100B2800F78037070018832784FCC183BE86856752
:100B3800FD17F58F13960701418285673E97832736
:100B4800C7818566FD16F18E7D76F18FD58F232EB0
:100B5800F7809307C4FA3E86DD450145092B370720
:100B680000188327C4FABE868967FD17F58F139688
:100B78000701418285673E97832707828966FD16AC
:100B8800F18EC206370601E07D16F18FD58F23203E
:100B9800F782370700188327C4FAC183BE868567A2
:100BA800FD17F58F13960701418285673E978327C6
:100BB80007828566FD16F18E7D76F18FD58F23200D
:100BC800F78237070018832704FBBE868967FD175D
:100BD800F58F13960701418285673E9783274782E1
:100BE8008966FD16F18EC206370601E07D16F18F83
:100BF800D58F2322F78237070018832704FBC18388
:100C0800BE868567FD17F58F1396070141828567B4
:100C18003E97832747828566FD16F18E7D76F18F94
:100C2800D58F2322F78237070018832744FBBE8617
:100C38008967FD17F58F13960701418285673E97EF
:100C4800832787828966FD16F18EC206370601E082
:100C58007D16F18FD58F2324F78237070018832755
:100C680044FBC183BE868567FD17F58F1396070180
:100C7800418285673E97832787828566FD16F18EB8
:100C88007D76F18FD58F2324F782370700188327C5
:100C980084FBBE868967FD17F58F1396070141828D
:100CA80085673E978327C7828966FD16F18EC2063F
:100CB800370601E07D16F18FD58F2326F782370797
:100CC8000018832784FBC183BE868567FD17F58FCF
:100CD80013960701418285673E978327C7828566F9
:100CE800FD16F18E7D76F18FD58F2326F7820100D0
:100CF800F6406644256182806F006037411106C660
:100D080022C40008793CAA8793C71700819F9DEBEE
:100D18008545370500184928854537052018692075
:100D28008545371520184920D134814537050018E5
:100D3800A5288145370520188528814537152018AD
:100D4800A52011A00100B240224441018280411136
:100D580006C622C40008854537051018B120370794
:100D680010181C53C166D58F1CD3370710181C43A5
:100D780093E717001CC3B7470F0093850724130593
:100D8800800CB520370710181C5393E717001CD3A5
:100D9800B7470F00938507241305800289280100AF
:100DA800B2402244410182806F4020235D7186C693
:100DB800A2C48008232EA4FAB70700102324F4FC49
:100DC8008327C4FB2320F4FE032704FE854763160C
:100DD800F7009305803E29451928930784FC3E8532
:100DE800EF30B06E0100B6402644616182806F200A
:100DF8006005797122D60018232EA4FC232CB4FC9C
:100E08008327C4FD2324F4FE032784FEB7373C025E
:100E18009387F74563E8E700B7373C0293870746AF
:100E28002324F4FE032784FEB7373C029387074642
:100E3800B377F70281EF032784FEB7373C02938725
:100E48000746B357F7022326F4FE21A8032784FE9A
:100E5800B7373C0293870746B357F702850723261F
:100E6800F4FE0327C4FE914763F5E7009147232664
:100E7800F4FE832784FD0327C4FE98C3010032547F
:100E880045618280797106D622D40018232EA4FCED
:100E98008327C4FD05476380E702054763E6E7004B
:100EA80009476381E70225A0B7877D0193870784F7
:100EB8002326F4FE1DA0B7C7C90193870738232648
:100EC800F4FE21A8EF30B0722326A4FE39A0A16752
:100ED800938707D02326F4FE01008327C4FE3E85AE
:100EE800B250225445618280797106D622D4001806
:100EF800232EA4FCB70771142326F4FE0325C4FD92
:100F080051372324A4FE0327C4FE8567BA9783A715
:100F180007942322F4FE930704FEBE85032584FE6E
:100F2800C93D832704FEBD8B13F7F70F832744FEC3
:100F38003D8B120793F7F7F0D98F2322F4FE83270E
:100F480044FE37071000D98F2322F4FE832744FE7E
:100F580037074000D98F2322F4FE832744FE370742
:100F68004000D98F2322F4FE832744FE3707100060
:100F7800D98F2322F4FE032744FE8326C4FE856707
:100F8800B69723A0E79401000327C4FE8567BA97A4
:100F980083A70794D183858B13F7F70F8547E3055C
:100FA800F7FE0100B250225445618280411122C6E9
:100FB8000008B707381423A00700370738141C4364
:100FC80093E717001CC3010032444101828041119C
:100FD80006C622C4000837053814EF301071AA87F6
:100FE8003E85B240224441018280011122CE001088
:100FF8002326A4FE8327C4FE83A70710C183858BFD
:10100800819F8DE38327C4FE83A70710CD83858B3B
:10101800819F89EB8327C4FE83A70710D183858B23
:10102800819FA9C30327C4FE8327C710B7060800FA
:10103800D58F2326F7100327C4FE8327C710C16660
:10104800D58F2326F7100327C4FE8327C710B706BA
:101058001000D58F2326F7108327C4FE23A007206E
:10106800854711A081473E85724405618280797168
:1010780006D622D40018232EA4FC232CB4FC232A41
:10108800C4FCB70771142324F4FE832744FD99E3B5
:10109800854715AA0327C4FD854763E7E7000327AB
:1010A80084FDE54763F4E700854731AA832784FE7A
:1010B8009C43858B819F99C3854731A2832784FEF2
:1010C80037C7DCFE130787A923A0E7208327C4FDC1
:1010D80081E7B707800019A0B71780002322F4FE24
:1010E800832784FD9207032744FEBA972322F4FE40
:1010F800832744FE13D72700B7074000FD17337630
:10110800F700032784FE5C43B7064000FD16F18E06
:101118008A06370600FF0D06F18FD58F5CC30327BB
:1011280084FE1C4393F7F78F93E707101CC303272C
:1011380084FE1C43B70600D0FD16FD8EB7070010CD
:10114800D58F1CC3032784FE1C4393E717001CC3D9
:101158000100832784FE9C43858B819FFDFB010052
:10116800832784FE9C4399838D8B819FF5FB032500
:1011780084FEA53DAA8799C38547B1A0232604FE0E
:101188000DA0832784FE03A70760832644FD8327D9
:10119800C4FE8A07B69798C38327C4FE850723260B
:1011A800F4FE0327C4FE8D47E3FDE7FC032784FE16
:1011B8008327C71093E707012326F710832784FEA8
:1011C80023A0072081473E85B25022544561828082
:1011D800797122D60018232EA4FC232604FE81A0B0
:1011E800B7170103138707A78326C4FEB147B38740
:1011F800F602BA979C430327C4FD631DF700032733
:10120800C4FEB1473307F702B7170103938707A74F
:10121800BA9729A88327C4FE85072326F4FE032747
:10122800C4FE9307D002E3FDE7FA81473E853254B6
:1012380045618280011122CE00102326A4FE832757
:10124800C4FE93B74701819F3E8572440561828041
:10125800011122CE00102326A4FE8327C4FE93B7D3
:101268000701819F3E85724405618280011122CE6B
:1012780000102326A4FE8327C4FE93B75701819F3D
:101288003E85724405618280011122CE001023261A
:10129800A4FE8327C4FE81CB0327C4FE994763E4D9
:1012A800E700854711A08147858B819F3E85724461
:1012B80005618280011122CE00102326A4FE032797
:1012C800C4FEC167B337F700819F3E85724405614C
:1012D8008280011122CE00102326A4FE8327C4FE9B
:1012E80093B70701819F3E857244056182807971B9
:1012F80022D60018232EA4FC232CB4FC8327C4FD7B
:10130800938707102326F4FE832784FD8A07032783
:10131800C4FEBA972326F4FE8327C4FE3E853254C2
:1013280045618280797106D622D40018232EA4FC48
:10133800232CB4FC232AC4FC0327C4FDB7070018D8
:10134800630BF70085679385A78FB717010313858C
:1013580087C9492301A0032584FDDD3DAA8793C7DA
:101368001700819F89EB032544FDE935AA8793C7B8
:101378001700819F91CB85679385B78FB7170103B6
:10138800138587C9812B15A8232604FE832584FD90
:101398000325C4FDA93F2324A4FE832784FE232616
:1013A800F4FE832744FDFD8B93F6F70F0327C4FE55
:1013B8001C43FD8A819BD58F1CC3B25022544561C2
:1013C8008280797106D622D40018232EA4FC232CFF
:1013D800B4FC232AC4FC0327C4FDB7070018630B19
:1013E800F70085679385B790B7170103138587C9F9
:1013F800D52101A0032584FDA13DAA8793C7170025
:10140800819F89EB032544FD9535AA8793C717006B
:10141800819F91CB85679385C790B7170103138583
:1014280087C94D2935A8832584FD0325C4FDC13509
:101438002326A4FE232404FE8327C4FE2324F4FECB
:10144800832744FDFD8B93F6F70F032784FE1C4387
:10145800FD8AA60671761306F61FF18FD58F1CC379
:10146800B250225445618280797106D622D4001880
:10147800232EA4FC232CB4FC232AC4FC0327C4FD7C
:10148800B7070018630BF70085679385C791B717EF
:101498000103138587C93D2901A0032584FD4D3B20
:1014A800AA8793C71700819F91CB85679385D791AA
:1014B800B7170103138587C9312991A8032744FD6C
:1014C800BD4763FBE70085679385E791B71701037D
:1014D800138587C9012125A8832584FD0325C4FD1B
:1014E80039352326A4FE232404FE8327C4FE23249F
:1014F800F4FE832744FDBD8B93F6F70F032784FE84
:101508001C43BD8A960693F7F7E1D58F1CC3B250EA
:10151800225445618280011106CE22CC0010232678
:10152800A4FE2324B4FE0327C4FEB7070018630BE8
:10153800F700856793857794B7170103138587C9E3
:10154800512E01A0032584FEB533AA8793C717003F
:10155800819F91CB856793858794B717010313857E
:1015680087C98D2E39A08327C4FE032784FE23A0B4
:10157800E720F240624405618280797106D622D460
:101588000018232EA4FC232CB4FC0327C4FDB707A2
:101598000018630BF7008567938517B2B717010327
:1015A800138587C9052E01A0032584FD5531AA8717
:1015B80093C71700819F91CB8567938527B2B7178B
:1015C8000103138587C9392625A0832584FD0325B2
:1015D800C4FD313B2326A4FE232404FE8327C4FE36
:1015E8002324F4FE032784FE1C439166D58F1CC375
:1015F800B250225445618280797106D622D40018EF
:10160800232EA4FC232CB4FC0327C4FDB707001821
:10161800630BF7008567938517B3B7170103138525
:1016280087C94D2C01A0032584FD1D31AA8793C7C6
:101638001700819F91CB8567938527B3B71701035F
:10164800138587C9412C2DA0832584FD0325C4FD5E
:1016580079392326A4FE232404FE8327C4FE2324E9
:10166800F4FE032784FE1C43F176FD16F58F1CC398
:10167800B250225445618280011106CE22CC00105E
:101688002326A4FE8327C4FE89EB9305B002B7176F
:101698000103138547CB3D2C01A08327C4FE984343
:1016A800B7070018630AF7009305C002B7170103CC
:1016B800138547CB052401A08327C4FEDC433E8560
:1016C800D53EAA8793C71700819F91CB9305D00277
:1016D800B7170103138547CBF52A854799A08327B8
:1016E800C4FE98438327C4FEDC43BE853A8525356E
:1016F8008327C4FE984383274765B7060010FD1665
:10170800FD8EB7070040D58F232AF7648327C4FED0
:101718009C43054723A0E73013054006EF10C0653A
:1017280081473E85F240624405618280011106CE00
:1017380022CC00102326A4FE2324B4FE2322C4FEB8
:101748008327C4FE89EB9305B004B71701031385FB
:1017580047CB492201A08327C4FE9843B707001846
:10176800630AF7009305C004B7170103138547CB35
:10177800952201A0032584FEE13CAA8793C71700A0
:10178800819F91CB9305D004B7170103138547CBED
:10179800912285471DAA832744FE89EB9305E0041F
:1017A800B7170103138547CB352201A0832744FED1
:1017B8009C433E854134AA8793C71700819F91CBEC
:1017C8009305F004B7170103138547CB21228547FA
:1017D800EDA8832744FEDC433E85E53CAA8793C7F2
:1017E8001700819F91CB93050005B7170103138557
:1017F80047CBCD208547D1A8832744FE9C473E850B
:10180800B534AA8793C71700819F91CB930510051C
:10181800B7170103138547CB752885477DA0832714
:1018280044FE9C4B3E858D34AA8793C71700819F41
:1018380091CB93052005B7170103138547CB59288A
:10184800854761A08327C4FE9843832744FE9C43B1
:101858003E86832584FE3A85F1348327C4FE984367
:10186800832744FEDC433E86832584FE3A85ED3E8D
:101878008327C4FE9843832744FE9C473E868325DE
:1018880084FE3A853D3E832744FEDC2789CB8327A7
:10189800C4FE9C43832584FE3E85C53101A8832769
:1018A800C4FE9C43832584FE3E85B933832744FECA
:1018B8009C4B1397070141838326C4FE832784FE2C
:1018C800A1078607B697DAA381473E85F2406244AE
:1018D800056182806F102046011122CE0010232658
:1018E800A4FE8327C4FE944B8327C4FE9843B6877F
:1018F8008D8B93F6F70F1C4B8D8AF19BD58F1CCBE4
:101908008327C4FED62B8327C4FE98438567FD171B
:10191800F58F1396070141821C4B8566FD16F18EE3
:10192800C206370601F07D16F18FD58F1CCB8327B1
:10193800C4FE9C43B84B8327C4FE9C43719BB8CB21
:101948008327C4FE98438327C4FEF22B1C53C16629
:10195800FD16F18E4176F18FD58F1CD38327C4FEF7
:1019680098438327C4FEB22F1C4FC166FD16F18E23
:101978004176F18FD58F1CCF8327C4FE98431C4F27
:10198800B7060080D58F1CCF0100724405618280A4
:10199800797122D60018232EA4FC8327C4FD9C430A
:1019A8009C5F2322F4FE8327C4FDD62F832744FEA1
:1019B80041677D17758FC176F58FD98F2322F4FE85
:1019C8008327C4FD9C43032744FE98DF8327C4FD77
:1019D8009C43DC5F2320F4FE8327C4FDF62F832776
:1019E80004FE41677D17758FC176F58FD98F232047
:1019F800F4FE8327C4FD9C43032704FED8DF832716
:101A0800C4FD9C5385E38327C4FD98433C4B93F75F
:101A1800F7EF3CCB8327C4FD98433C4B93F7F7BFC4
:101A28003CCBBDA28327C4FD98433C4B93E70710EA
:101A38003CCB8327C4FD98433C4B93E707403CCB02
:101A48008327C4FD9C53F51793B71700819F23265E
:101A5800F4FE8327C4FD98438327C4FE858B93F641
:101A6800F70F3C4B858AA60693F7F7DFD58F3CCB5B
:101A78008327C4FD98438327C4FE858B93F6F70F0D
:101A88003C4B858AAE067D761306F67FF18FD58F9F
:101A98003CCBA1472324F4FE8327C4FD9C43B84FC5
:101AA800832784FE8607FD46B397F60093C7F7FFA2
:101AB800BE868327C4FD9C43758FB8CF8327C4FD9A
:101AC8009C43B84F832684FE8D47B387F602FD46B4
:101AD800B397F60093C7F7FFBE868327C4FD9C43E0
:101AE800758FB8CF8327C4FD9C43B44F8327C4FDAB
:101AF800D853832784FE86073317F7008327C4FD4E
:101B08009C43558FB8CF8327C4FD9C43B44F83278C
:101B1800C4FDD853032684FE8D47B307F602331756
:101B2800F7008327C4FD9C43558FB8CF8327C4FD96
:101B38009C439C5F2322F4FE8327C4FDD62F832772
:101B480044FE41677D17758FC176F58FD98F2322A3
:101B5800F4FE8327C4FD9C43032744FE98DF8327B4
:101B6800C4FD9C43DC5F2320F4FE8327C4FDF62FCD
:101B7800832704FE41677D17758FC176F58FD98F4E
:101B88002320F4FE8327C4FD9C43032704FED8DFEB
:101B98000100325445618280011122CE00102326B3
:101BA800A4FE2324B4FE8327C4FE9C4B054763830D
:101BB800E706054763E6E70009476387E70AFDA8E4
:101BC800832784FE94438327C4FE9843B6878D8B6E
:101BD80093F6F70F832707108D8AB20675767D1660
:101BE800F18FD58F2320F710832784FED4438327D2
:101BF800C4FE9843B6878D8B93F6F70F832707109B
:101C08008D8AC2063706FDFF7D16F18FD58F2320FA
:101C1800F7106DA0832784FED4438327C4FE98431E
:101C2800B6878D8B93F6F70F832707108D8ABA0630
:101C380051767D16F18FD58F2320F710832784FEE8
:101C480094438327C4FE9843B6878D8B93F6F70F8A
:101C5800832707108D8ACA063706F4FF7D16F18F91
:101C6800D58F2320F71099A8832784FE94438327D0
:101C7800C4FE9843B6878D8B93F6F70F832707101A
:101C88008D8AB20675767D16F18FD58F2320F710D1
:101C9800832784FED4438327C4FE9843B6878D8B5D
:101CA80093F6F70F832707108D8ACA063706F4FFC5
:101CB8007D16F18FD58F2320F710010001007244A3
:101CC80005618280011122CE00102326A4FE232460
:101CD800B4FE8327C4FE9C4B05476383E70605478C
:101CE80063E6E70009476387E70AFDA8832784FEC0
:101CF80094478327C4FE9843B6878D8B93F6F70FD6
:101D0800832747108D8AB20675767D16F18FD58F99
:101D18002322F710832784FED4478327C4FE9843E1
:101D2800B6878D8B93F6F70F832747108D8AC206E7
:101D38003706FDFF7D16F18FD58F2322F7106DA092
:101D4800832784FED4478327C4FE9843B6878D8BA8
:101D580093F6F70F832747108D8ABA0651767D16BA
:101D6800F18FD58F2322F710832784FE944783278A
:101D7800C4FE9843B6878D8B93F6F70F83274710D9
:101D88008D8ACA063706F4FF7D16F18FD58F232278
:101D9800F71099A8832784FE94478327C4FE9843A5
:101DA800B6878D8B93F6F70F832747108D8AB20677
:101DB80075767D16F18FD58F2322F710832784FE41
:101DC800D4478327C4FE9843B6878D8B93F6F70FC5
:101DD800832747108D8ACA063706F4FF7D16F18FD0
:101DE800D58F2322F710010001007244056182801B
:101DF800011106CE22CC00102326A4FE2324B4FE13
:101E08008327C4FE9C4791E7832584FE0325C4FEEF
:101E180061338327C4FEDC4791E7832584FE0325CD
:101E2800C4FE4D358327C4FE9C47F1EF8327C4FECB
:101E3800DC47F1EB832784FE944B8327C4FE984349
:101E4800B6878D8B93F6F70F832787208D8AF19BB2
:101E5800D58F2324F720832784FED44B8327C4FE01
:101E68009843B6878D8B93F6F70F832787208D8A43
:101E7800920693F7F7FCD58F2324F7208327C4FE17
:101E880098438327C4FE923783270720C166FD162F
:101E9800F18E4176F18FD58F2320F720832784FE9A
:101EA800944F8327C4FE9843B6878D8B93F6F70F1C
:101EB800832787208D8A8A06CD9BD58F2324F720F8
:101EC800832784FED44F8327C4FE9843B6878D8B1F
:101ED80093F6F70F832787208D8A9A0693F7F7F3EF
:101EE800D58F2324F7208327C4FE98438327C4FE75
:101EF800923783274720C166FD16F18E4176F18F10
:101F0800D58F2322F7200100F240624405618280C8
:101F1800797122D60018232EA4FC8327C4FD9C4780
:101F28009DCB8327C4FD984785476314F7008547F1
:101F380011A089472326F4FE8327C4FD98438327ED
:101F4800C4FE8D8B93F6F70F832707108D8AF19BBC
:101F5800D58F2320F7108327C4FDDC479DCB83272B
:101F6800C4FDD84785476314F700854711A0894702
:101F78002324F4FE8327C4FD9843832784FE8D8B96
:101F880093F6F70F832747108D8AF19BD58F23226D
:101F9800F7100100325445618280397106DE22DC77
:101FA80080002326A4FC0325C4FC9D37232804FCB9
:101FB800232A04FC232C04FC232E04FC232004FEE7
:101FC800232204FE232404FE232604FE8327C4FCC4
:101FD800DC4305476382E704054763E9E7000947EF
:101FE8006384E7060D476386E7085DA889472328C9
:101FF800F4FC8547232AF4FC8947232CF4FC854705
:10200800232EF4FC232004FE232204FE232404FEB2
:1020180089472326F4FE69A085472328F4FC8947CD
:10202800232AF4FC8547232CF4FC8947232EF4FC4F
:1020380085472324F4FE89472326F4FE8547232079
:10204800F4FE232204FEA9A889472328F4FC854727
:10205800232AF4FC8947232CF4FC8547232EF4FC1F
:10206800232004FE232204FE232404FE232604FE48
:1020780005A885472328F4FC8947232AF4FC8547CB
:10208800232CF4FC8947232EF4FC85472324F4FEF3
:10209800232604FE85472320F4FE232204FE0100A4
:1020A800930704FDBE850325C4FC99330100F25053
:1020B800625421618280797122D60018232EA4FCF3
:1020C8008327C4FD9C439C5B2322F4FE8327C4FD25
:1020D800F63B832744FE41677D17758FC176F58FE0
:1020E800D98F2322F4FE8327C4FD9C43032744FE93
:1020F80098DB8327C4FD9C43DC5B2320F4FE832705
:10210800C4FD83D62704832704FE41677D17758F96
:10211800C176F58FD98F2320F4FE8327C4FD9C4315
:10212800032704FED8DB8327C4FDFC4399EF8327EC
:10213800C4FD98433C4BBD9B3CCB8327C4FD9843CF
:102148003C4B93F7F7FB3CCB91A28327C4FD984304
:102158003C4B93E707013CCB8327C4FD98433C4B9A
:1021680093E707043CCB8327C4FDFC43F51793B7DB
:102178001700819F2326F4FE8327C4FD98438327F5
:10218800C4FE858B93F6F70F3C4B858A960693F72A
:10219800F7FDD58F3CCB8327C4FD98438327C4FE26
:1021A800858B93F6F70F3C4B858A9E0693F7F7F7D6
:1021B800D58F3CCBA1472324F4FE8327C4FD9C4341
:1021C800B84F8327C4FD9C43019BB8CF8327C4FD28
:1021D8009C43B84FFD46832784FEB397F60093C708
:1021E800F7FFBE868327C4FD9C43758FB8CF83272E
:1021F800C4FD9C43B44F8327C4FDB8478327C4FD5F
:102208009C43558FB8CF8327C4FD9C43B44F832785
:10221800C4FDB847832784FE3317F7008327C4FD1E
:102228009C43558FB8CF8327C4FD9C439C5B2322D6
:10223800F4FE8327C4FDF63B832744FE41677D17E0
:10224800758FC176F58FD98F2322F4FE8327C4FDBD
:102258009C43032744FE98DB8327C4FD9C43DC5B37
:102268002320F4FE8327C4FD83D62704832704FE96
:1022780041677D17758FC176F58FD98F2320F4FEBE
:102288008327C4FD9C43032704FED8DB0100325496
:1022980045618280011106CE22CC00102326A4FEBF
:1022A8008327C4FEDA3BBD4763FAE7009305E013D2
:1022B800B71701031385C7CEA926FDA08327C4FE3F
:1022C80003D70704BD4763FAE7009305F013B71770
:1022D80001031385C7CE3526C1A88327C4FE945BA6
:1022E8008327C4FE9843B687BD8B93F6F70F8327E1
:1022F8000750BD8AC19BD58F2320F7508327C4FE82
:10230800D63B8327C4FE9843B687BD8B93F6F70F59
:1023180083278750BD8AC19BD58F2324F7508327F5
:10232800C4FE98438327C4FE83C6C7028327075089
:10233800858AC20641767D16F18FD58F2320F75006
:102348008327C4FED45F8327C4FE9843B687BD8B1A
:1023580093F6F70F83274750BD8AC19BD58F232259
:10236800F7508327C4FE83D607048327C4FE984307
:10237800B687BD8B93F6F70F8327C750BD8AC19BDD
:10238800D58F2326F7508327C4FE98438327C4FE9E
:1023980083C6870383274750858AC20641767D1600
:1023A800F18FD58F2322F750F24062440561828075
:1023B800011106CE22CC00102326A4FE8327C4FEDA
:1023C80003D74705BD4763FAE70093051015B7170C
:1023D80001031385C7CE352495A08327C4FEB44BCB
:1023E8008327C4FE9843B687BD8B93F6F70F8327E0
:1023F8004742BD8AC19BD58F2322F7428327C4FE5B
:1024080083D647058327C4FE9843B687BD8B93F6CA
:10241800F70F83278742BD8AC19BD58F2324F742B4
:102428008327C4FE98438327C4FE83C6C704832733
:102438004741858AF99BD58F232AF740F2406244A9
:1024480005618280011106CE22CC00102326A4FE4D
:102458008327C4FE89EB9305E015B717010313859D
:10246800C7CE452201A08327C4FE9843B707A0140E
:10247800630FF7028327C4FE9843B717A0146308B5
:10248800F7028327C4FE9843B727A0146301F70215
:102498008327C4FE9843B737A014630AF70093054F
:1024A800F015B71701031385C7CEA12A01A083270A
:1024B800C4FEDA2B8567636BF70093050016B71720
:1024C80001031385C7CE352A85473DA28327C4FE5D
:1024D8009A2F8327C4FEDE2B63FBE70093051016B3
:1024E800B71701031385C7CE292A854731A2832749
:1024F800C4FEBA2F8327C4FEFE2B636BF700930537
:102508002016B71701031385C7CEE5288547EDA028
:102518008327C4FEDE2F91EB93053016B71701030E
:102528001385C7CEF9288547C1A88327C4FEDA2FAB
:102538008327C4FEFE2B636BF70093054016B7177D
:1025480001031385C7CE752885477DA08327C4FE60
:10255800FE2F91EB93055016B71701031385C7CECD
:102568004D20854751A88327C4FEFA2F8327C4FE30
:10257800FE2B636BF70093056016B71701031385ED
:10258800C7CE412085478DA88327C4FEFA3B832701
:10259800C4FEFE2B636BF70093058016B717010383
:1025A8001385C7CEB928854781A88327C4FE03D7DA
:1025B80027048327C4FEFE2B636BF7009305A01640
:1025C800B71701031385C7CE2D28854735A00325E6
:1025D800C4FEEFF06FB00325C4FEEFF06FBB032518
:1025E800C4FE653A0325C4FEF9340325C4FE5D31F3
:1025F8000325C4FE753B81473E85F2406244056170
:1026080082806F004073011122CE00102326A4FEA1
:1026180037071010A167BA979843B7061010832799
:10262800C4FE5D8FA167B69798C301007244056127
:102638008280011122CE00102326A4FE3707101035
:10264800A167BA9798438327C4FE93C7F7FFB706D5
:1026580010107D8FA167B69798C301007244056179
:102668008280797106D622D40018232EA4FC232C4C
:10267800B4FC8327C4FD89EB9305D042B717010347
:102688001385C7CE4D2D01A08327C4FD9843B707F6
:10269800A014630FF7028327C4FD9843B717A0144B
:1026A8006308F7028327C4FD9843B727A014630182
:1026B800F7028327C4FD9843B737A014630AF700CD
:1026C8009305E042B71701031385C7CEAD2501A0D6
:1026D800032784FD9307300663FBE7009305F04268
:1026E800B71701031385C7CEB925854701AA8327E4
:1026F80084FD91EB93050043B71701031385C7CEFB
:102708001D2D8547E5A88327C4FD984B894763128B
:10271800F7048327C4FDFE2B3E878327C4FDFE2BC9
:1027280053F717D0B717010387A787D15377F7183F
:10273800832784FDD3F717D0D377F710D39707C033
:10274800B307F7402326F4FE8327C4FE2324F4FEB0
:102758003DA885472326F4FE8327C4FDFE2B53F7A7
:1027680017D0B717010387A787D15377F71883279F
:1027780084FDD3F717D05377F7108327C4FED3F718
:1027880017D0D377F700D39707C02324F4FE832705
:10279800C4FD9C439C5F2322F4FE8327C4FE9396CA
:1027A8000701C182832744FE41677D17758FC17673
:1027B800F58FD98F2322F4FE8327C4FD9C4303277A
:1027C80044FE98DF8327C4FD9C43DC5F2320F4FE8E
:1027D800832784FE93960701C182832704FE4167FD
:1027E8007D17758FC176F58FD98F2320F4FE832747
:1027F800C4FD9C43032704FED8DF81473E85B250C1
:10280800225445618280011122CE00102326A4FEA5
:102818002324B4FE832784FED8438547631BF7042B
:102828008327C4FE9C4303A74710832784FE9C4745
:102838008D46B397F60093C7F7FFBE868327C4FE7D
:102848009C43758F23A2E7108327C4FE9C4383A66D
:102858004710832784FED847832784FE9C47331775
:10286800F7008327C4FE9C43558F23A2E7108147B6
:10287800B9A8832784FEDC43B1EB8327C4FE9C43BD
:1028880003A70710832784FE9C478D46B397F6005D
:1028980093C7F7FFBE868327C4FE9C43758F23A08A
:1028A800E7108327C4FE9C4383A60710832784FE72
:1028B800D847832784FE9C473317F7008327C4FE35
:1028C8009C43558F23A0E710814711A085473E857B
:1028D800724405618280011106CE22CC00102326A5
:1028E800A4FE2324B4FE8327C4FE89EB9305C051BC
:1028F800B71701031385C7CE3D2901A08327C4FE5E
:102908009C4389EB9305D051B71701031385C7CEB4
:102918001D2101A08327C4FE9843B707A014630FA5
:10292800F7028327C4FE9843B717A0146308F70279
:102938008327C4FE9843B727A0146301F7028327AF
:10294800C4FE9843B737A014630AF7009305E05113
:10295800B71701031385C7CEF92E01A0832784FE7C
:10296800D843854763FBE70093051052B717010367
:102978001385C7CEC9268547B5A0832784FE984707
:10298800E94763FBE70093054052B7170103138536
:10299800C7CE55268547B9A0832784FED8478D47DB
:1029A80063FBE70093056052B71701031385C7CE91
:1029B8005926854705A8832784FE94438327C4FEA8
:1029C80098431396060141821C5BC166FD16F18E81
:1029D8004176F18FD58F1CDB832584FE0325C4FE49
:1029E8001D35AA873E85F240624405618280011147
:1029F80006CE22CC00102326A4FE2324B4FE83276F
:102A0800C4FE89EB93055053B71701031385C7CE4E
:102A18001D2601A08327C4FE9C4389EB93056053C0
:102A2800B71701031385C7CE392601A08327C4FE33
:102A38009843B707A014630FF7028327C4FE98438F
:102A4800B717A0146308F7028327C4FE9843B72773
:102A5800A0146301F7028327C4FE9843B737A01474
:102A6800630AF70093057053B71701031385C7CEA0
:102A7800D92401A0832784FED843854763FBE70058
:102A88009305A053B71701031385C7CE6D24854757
:102A9800B5A0832784FE9847E94763FBE7009305C1
:102AA800D053B71701031385C7CE71248547B9A042
:102AB800832784FED8478D4763FBE7009305F053CF
:102AC800B71701031385C7CEBD24854705A88327FB
:102AD80084FE94438327C4FE9843139606014182DB
:102AE8005C5BC166FD16F18E4176F18FD58F5CDB9C
:102AF800832584FE0325C4FE3933AA873E85F24028
:102B0800624405618280011106CE22CC0010232682
:102B1800A4FE2324B4FE8327C4FE89EB9305E05466
:102B2800B71701031385C7CE392401A08327C4FE34
:102B38009C4389EB9305F054B71701031385C7CE5F
:102B4800DD2A01A08327C4FE9843B707A014630FAA
:102B5800F7028327C4FE9843B717A0146308F70247
:102B68008327C4FE9843B727A0146301F70283277D
:102B7800C4FE9843B737A014630AF70093050055BD
:102B8800B71701031385C7CE7D2201A0832784FED2
:102B9800D843854763FBE70093053055B717010312
:102BA8001385C7CE492A8547B5A0832784FE984751
:102BB800E94763FBE70093056055B71701031385E1
:102BC800C7CE952A8547B9A0832784FED8478D4765
:102BD80063FBE70093058055B71701031385C7CE3C
:102BE800992A854705A8832784FE94438327C4FE32
:102BF80098431396060141821C5FC166FD16F18E4B
:102C08004176F18FD58F1CDF832584FE0325C4FE12
:102C1800DD3EAA873E85F24062440561828001114B
:102C280006CE22CC00102326A4FE2324B4FE83273C
:102C3800C4FE89EB93057056B71701031385C7CEF9
:102C4800DD2801A08327C4FE9C4389EB93058056A9
:102C5800B71701031385C7CEF92801A08327C4FE3F
:102C68009843B707A014630FF7028327C4FE98435D
:102C7800B717A0146308F7028327C4FE9843B72741
:102C8800A0146301F7028327C4FE9843B737A01442
:102C9800630AF70093059056B71701031385C7CE4B
:102CA800592801A0832784FED843854763FBE700A2
:102CB8009305C056B71701031385C7CEAD288547BE
:102CC800B5A0832784FE9847E94763FBE70093058F
:102CD800F056B71701031385C7CEB1288547B9A0A9
:102CE800832784FED8478D4763FBE7009305105779
:102CF800B71701031385C7CE3D28854705A8832745
:102D080084FE94438327C4FE9843139606014182A8
:102D18005C5FC166FD16F18E4176F18FD58F5CDF61
:102D2800832584FE0325C4FEF93CAA873E85F2402C
:102D3800624405618280011122CE00102326A4FE80
:102D48002324B4FE0100724405618280411122C629
:102D58000008B70738149C473E85324441018280F9
:102D6800411106C622C40008EF20000FAA873E853D
:102D7800B240224441018280797106D622D40018DB
:102D8800232EA4FCE1372326A4FEEFE04FA42A87D4
:102D9800B7470F0093870724B357F7020327C4FDEB
:102DA800B307F7022324F4FE55372322A4FE032792
:102DB80044FE8327C4FEB307F7402320F4FE03270D
:102DC80004FE832784FEE361F7FE0100B25022541B
:102DD80045618280797106D622D40018232EA4FC7E
:102DE800232604FE09A81305803E79378327C4FEED
:102DF80085072326F4FE0327C4FE8327C4FDE36466
:102E0800F7FE0100B250225445618280797106D6DE
:102E180022D40018232EA4FC232604FE09A8130597
:102E2800803E4D3F8327C4FE85072326F4FE0327F3
:102E3800C4FE8327C4FDE364F7FE0100B2502254A8
:102E480045618280011106CE22CC00102326A4FE03
:102E58002324B4FE832784FE1307803E6380E702A1
:102E680037470F0013070724638EE700054763837E
:102E7800E70029A80325C4FE513F09A80325C4FE7D
:102E8800913F29A00325C4FEC53D01000100F24081
:102E9800624405618280011122CE00102326A4FE1F
:102EA8000F00F00F8327C4FEBE82739002BF01009B
:102EB800724405618280011106CE22CC00102326BF
:102EC800A4FEB7070004138787188327C4FE8E075C
:102ED800BA979443B7070004138787188327C4FE5B
:102EE8008E07BA97DC433E8582960325C4FE653774
:102EF8000100F240624405618280011122CE001077
:102F0800232604FE2DA8B7070004138787188327F4
:102F1800C4FE8E07BA97373700031307C77E98C3D6
:102F2800B7070004138787188327C4FE8E07BA974C
:102F380023A207008327C4FE85072326F4FE032760
:102F4800C4FE93072007E3F0E7FC01007244056123
:102F58008280011106CE22CC00102326A4FE232451
:102F6800B4FE2322C4FE832784FE89EB9305300632
:102F7800B71701031385C7D17D3B01A00327C4FE02
:102F88009307200763FBE70093054006B717010383
:102F98001385C7D14D3389471DA8B7070004138788
:102FA80087188327C4FE8E07BA979843B73700035C
:102FB8009387C77E6304F7008D4711A8032644FE54
:102FC800832584FE0325C4FEEF00F00281473E8579
:102FD800F240624405618280397106DE22DC80009D
:102FE8002326A4FCEF0090052326A4FE0327C4FC97
:102FF800E54763F8E7000327C4FC9307200763FB52
:10300800E7009305300CB71701031385C7D12533A3
:10301800894739A20327C4FEA1476314F700730048
:1030280000000327C4FCFD4763E0E7020547832748
:10303800C4FCB317F7002324F4FE832784FEF3A708
:103048004730232AF4FCE9A00327C4FC9307F003C4
:1030580063EFE7028327C4FC81172324F4FEF327D8
:1030680000BE232CF4FC832784FD2320F4FE0547AF
:10307800832784FEB317F700032704FED98F232084
:10308800F4FE832704FEBE82739002BE51A003277C
:10309800C4FC9307F00563E0E7048327C4FC938727
:1030A80007FC2324F4FEF32710BE232EF4FC832709
:1030B800C4FD2320F4FE0547832784FEB317F700D9
:1030C800032704FED98F2320F4FE832704FEBE8243
:1030D800739012BE35A88327C4FC938707FA23246C
:1030E800F4FEF32720BE2322F4FE832744FE232088
:1030F800F4FE0547832784FEB317F700032704FE71
:10310800D98F2320F4FE832704FEBE82739022BE4B
:103118000327C4FEA1476314F7007300000081472A
:103128003E85F250625421618280011122CE001046
:103138002326A4FE0100724405618280411122C643
:1031480000080100324441018280011106CE22CCE0
:1031580000102326A4FE0325C4FEC13FC537010085
:10316800F240624405618280011106CE22CC001033
:103178002326A4FE8327C4FE89EB9305D012B71734
:1031880001031385C7D1453E01A00325C4FE713F45
:1031980075370100F2406244056182801D71A2CE3C
:1031A80080102326A4FA2324B4FA2322C4FA8327FE
:1031B800C4FAE1171D476363F72A13972700B71767
:1031C80001039387C7D3BA979C438287F32780BCB0
:1031D800232AF4FA832744FB2328F4FA832784FA62
:1031E8008A07F18B3D47B317F70093C7F7FF03270B
:1031F80004FBF98F2328F4FA832784FA8A07F18BD2
:10320800032744FAB317F700032704FBD98F2328B1
:10321800F4FA832704FBBE82739082BC89A4F32747
:1032280090BC232EF4FA8327C4FB232CF4FA8327BB
:1032380084FA8A07F18B3D47B317F70093C7F7FF66
:10324800032784FBF98F232CF4FA832784FA8A074F
:10325800F18B032744FAB317F700032784FBD98FB0
:10326800232CF4FA832784FBBE82739092BCC5AAF0
:10327800F327A0BC2322F4FC832744FC2320F4FC7E
:10328800832784FA8A07F18B3D47B317F70093C762
:10329800F7FF032704FCF98F2320F4FC832784FA23
:1032A8008A07F18B032744FAB317F700032704FCB6
:1032B800D98F2320F4FC832704FCBE827390A2BC20
:1032C80079AAF327B0BC2326F4FC8327C4FC232463
:1032D800F4FC832784FA8A07F18B3D47B317F7007C
:1032E80093C7F7FF032784FCF98F2324F4FC832773
:1032F80084FA8A07F18B032744FAB317F7000327E8
:1033080084FCD98F2324F4FC832784FCBE82739029
:10331800B2BCB1A2F327C0BC232AF4FC832744FD26
:103328002328F4FC832784FA8A07F18B3D47B317D7
:10333800F70093C7F7FF032704FDF98F2328F4FC50
:10334800832784FA8A07F18B032744FAB317F70017
:10335800032704FDD98F2328F4FC832704FDBE82AC
:103368007390C2BCEDA8F327D0BC232EF4FC8327AE
:10337800C4FD232CF4FC832784FA8A07F18B3D478C
:10338800B317F70093C7F7FF032784FDF98F232CA2
:10339800F4FC832784FA8A07F18B032744FAB317CE
:1033A800F700032784FDD98F232CF4FC832784FDA1
:1033B800BE827390D2BC65A0F327E0BC2322F4FE42
:1033C800832744FE2320F4FE832784FA8A07F18B9F
:1033D8003D47B317F70093C7F7FF032704FEF98F9C
:1033E8002320F4FE832784FA8A07F18B032744FA03
:1033F800B317F700032704FED98F2320F4FE832791
:1034080004FEBE827390E2BC99A8F327F0BC232681
:10341800F4FE8327C4FE2324F4FE832784FA8A0754
:10342800F18B3D47B317F70093C7F7FF032784FED7
:10343800F98F2324F4FE832784FA8A07F18B032764
:1034480044FAB317F700032784FED98F2324F4FE28
:10345800832784FEBE827390F2BC11A00100010094
:10346800764425618280597186D6A2D48018232E8D
:10347800A4F8232CB4F8D9262326A4FE0327C4FED7
:10348800A1476314F700730000008327C4F98D83F4
:103498002324F4FE032784FE9D4763E5E72A832758
:1034A80084FE13972700B71701039387C7D5BA97E8
:1034B8009C438287F32700BC2326F4FA8327C4FAA7
:1034C8002324F4FA8327C4F98A07F18B3D47B317FD
:1034D800F70093C7F7FF032784FAF98F2324F4FA38
:1034E8008327C4F98A07F18B032784F9B317F700F8
:1034F800032784FAD98F2324F4FA832784FABE8217
:10350800739002BC81ACF32710BC232AF4FA8327FA
:1035180044FB2328F4FA8327C4F98A07F18B3D4733
:10352800B317F70093C7F7FF032704FBF98F232886
:10353800F4FA8327C4F98A07F18B032784F9B317B0
:10354800F700032704FBD98F2328F4FA832704FB09
:10355800BE82739012BCFDAAF32720BC232EF4FA76
:103568008327C4FB232CF4FA8327C4F98A07F18B39
:103578003D47B317F70093C7F7FF032784FBF98F7D
:10358800232CF4FA8327C4F98A07F18B032784F9DB
:10359800B317F700032784FBD98F232CF4FA83276A
:1035A80084FBBE82739022BC75A2F32730BC232211
:1035B800F4FC832744FC2320F4FC8327C4F98A07FE
:1035C800F18B3D47B317F70093C7F7FF032704FCB8
:1035D800F98F2320F4FC8327C4F98A07F18B03278A
:1035E80084F9B317F700032704FCD98F2320F4FCD0
:1035F800832704FCBE82739032BCA9AAF32740BC7F
:103608002326F4FC8327C4FC2324F4FC8327C4F971
:103618008A07F18B3D47B317F70093C7F7FF0327D6
:1036280084FCF98F2324F4FC8327C4F98A07F18BDF
:10363800032784F9B317F700032784FCD98F2324C1
:10364800F4FC832784FCBE82739042BC21A2F3273A
:1036580050BC232AF4FC832744FD2328F4FC832749
:10366800C4F98A07F18B3D47B317F70093C7F7FFF3
:10367800032704FDF98F2328F4FC8327C4F98A075C
:10368800F18B032784F9B317F700032704FDD98FBB
:103698002328F4FC832704FDBE82739052BC5DA8E6
:1036A800F32760BC232EF4FC8327C4FD232CF4FCF1
:1036B8008327C4F98A07F18B3D47B317F70093C7EF
:1036C800F7FF032784FDF98F232CF4FC8327C4F923
:1036D8008A07F18B032784F9B317F700032784FDC2
:1036E800D98F232CF4FC832784FDBE82739062BC9F
:1036F80095A0F32770BC2322F4FE832744FE2320E1
:10370800F4FE8327C4F98A07F18B3D47B317F70006
:1037180093C7F7FF032704FEF98F2320F4FE8327BE
:10372800C4F98A07F18B032784F9B317F700032735
:1037380004FED98F2320F4FE832704FEBE827390F3
:1037480072BC09A8032684F98325C4F9032584FEDD
:10375800B13401000327C4FEA1476314F7007300C6
:1037680000000100B650265465618280011106CE22
:1037780022CC00102326A4FE2324B4FE0327C4FE73
:10378800E54763F8E7000327C4FE9307200763FCB7
:10379800E7009305C018B71701031385C7D1EFF0E9
:1037A8008FD989471DA8832784FE91C7032784FEE4
:1037B800BD4763FCE7009305D018B71701031385CD
:1037C800C7D1EFF04FD7954709A88327C4FE9917AB
:1037D800832584FE3E85413981473E85F240624417
:1037E80005618280011122CE00102326A4FE01006B
:1037F800724405618280011122CE00102326A4FEA6
:103808002324B4FE2322C4FEB707000413878718B5
:103818008327C4FE8E07BA97032744FED8C3B70789
:103828000004138787188327C4FE8E07BA970327D7
:1038380084FE98C30100724405618280411122C64A
:10384800000883A741A899E3A14711A0AD473E8589
:10385800324441018280797106D622D40018232E81
:10386800A4FC8327C4FD9C433E85EF1000682A878B
:103878008327C4FDDC4BB357F7022326F4FE8327C6
:10388800C4FDD8478327C4FD9C4BBA9785070327F7
:10389800C4FEB357F7022324F4FEB7470F0013877B
:1038A8000724832784FE3357F702AD47B307F7028F
:1038B8002322F4FE032544FEEFF00FCC0100B250A2
:1038C800225445618280011122CE00102326A4FED5
:1038D8008327C4FE83C7C70293C71700819F89CB7C
:1038E8008327C4FE98431C4393E707021CC301A81F
:1038F8008327C4FE98431C4393F7F7FD1CC30100BC
:10390800724405618280797106D622D40018232E6C
:10391800A4FC8327C4FD98431C4393E717001CC3EA
:103928008327C4FD9C431307300FD8D3854723262C
:10393800F4FE15A88327C4FD9C430327C4FE98D32F
:103948008327C4FD9C439C53BD83858B819F232083
:10395800F4FE032704FE8547E304F7FE8327C4FE2D
:1039680085072326F4FE0327C4FE93070002E3D34A
:10397800E7FC8327C4FD9C431307100498C38327DF
:10398800C4FDDC4BFD172322F4FE8327C4FD9C4FA6
:10399800FD179A07032744FED98F2322F4FE8327B5
:1039A800C4FDDC47FD17A207032744FED98F232255
:1039B800F4FE8327C4FD9C4BFD17B207032744FE82
:1039C800D98F2322F4FE832544FEB71701031385FC
:1039D800C7D7EF20D07C8327C4FD9C43032744FE30
:1039E800D8C78327C4FD9C433D4798C30325C4FD1E
:1039F800D93D8327C4FDD84385476310F70883273B
:103A0800C4FD9C47BDCB8327C4FD98431C4393E763
:103A180007081CC38327C4FD9C4794438327C4FD20
:103A28009843B687858B93F6F70F5C4B858A920689
:103A3800BD9BD58F5CCB8327C4FD9C47D44383278C
:103A4800C4FD9843B687858B93F6F70F5C4B858A40
:103A58008E06DD9BD58F5CCB8327C4FD9C4794479E
:103A68008327C4FD9843B687858B93F6F70F5C4B85
:103A7800858A8A06ED9BD58F5CCB8327C4FD984346
:103A88001C43F99B1CC385472324F4FE1DA8032768
:103A980084FEE14763C9E700832784FEBE850325CA
:103AA800C4FDEF00F002832784FEFD17138701E2AF
:103AB8008A07BA9723A00700832784FE8507232453
:103AC800F4FE032784FE93070002E3D2E7FC0325F4
:103AD800C4FD51338327C4FD0547D8CF81473E85B0
:103AE800B250225445618280797106D622D40018DA
:103AF800232EA4FC232CB4FCB71701031385C7D8C5
:103B0800EF20F069832784FDD8278327C4FE137725
:103B1800F70F93F707F0D98F2326F4FE832784FD48
:103B2800D8378327C4FE1377F70F2207C176938609
:103B3800F60FF58FD98F2326F4FE8327C4FD9C4307
:103B48000327C4FED8DF832784FDF827832784FE54
:103B58001377F70F93F707F0D98F2324F4FE832701
:103B680084FDF837832784FE1377F70F2207C17681
:103B78009386F60FF58FD98F2324F4FE8327C4FD8F
:103B88009C43032784FEB8C3832784FD982B83278F
:103B980044FE1377F70F93F707F0D98F2322F4FE2B
:103BA800832784FD983B832744FE1377F70F22076A
:103BB800C1769386F60FF58FD98F2322F4FE8327DB
:103BC800C4FD9C43032744FEF8C3832784FDB82B18
:103BD800832704FE1377F70F93F707F0D98F232075
:103BE800F4FE832784FDB83B832704FE1377F70F81
:103BF8002207C1769386F60FF58FD98F2320F4FE1E
:103C08008327C4FD9C43032704FEB8C70100B250B4
:103C1800225445618280797106D622D40018232E59
:103C2800A4FC232CB4FC8327C4FDD84F8547630428
:103C3800F7008947DDA28327C4FD0947D8CF23268B
:103C480004FEE5472322F4FE2DA8832744FEFD1732
:103C5800138701E28A07BA979C4399EF832744FEAA
:103C6800FD17138701E28A07BA97054798C3832788
:103C780044FE2326F4FE21A8832744FE8507232239
:103C8800F4FE032744FE93070002E3D0E7FC8327F2
:103C9800C4FE99E3854751A2832784FD9C430547C9
:103CA8006382E704054763E9E70009476387E70696
:103CB8000D47638CE708E9A0832784FD9C47139789
:103CC80027008967F117F98F2324F4FE032784FE60
:103CD800A967D98F2324F4FE8327C4FD9C4323A816
:103CE80007024DA0832784FD9C4713D707018967E6
:103CF800FD17F98F2324F4FE032784FEB967D98FB3
:103D08002324F4FE832784FD94478327C4FD9C4322
:103D180041677D17758F98DBB5A0832784FD9C4785
:103D280013972700B707008093C7C7FFF98F23248D
:103D3800F4FE032784FEA167D98F2324F4FE83278A
:103D4800C4FD9C4323A8070235A8832784FD9C470C
:103D580013D707018967FD17F98F2324F4FE03277A
:103D680084FEB167D98F2324F4FE832784FD94470A
:103D78008327C4FD9C4341677D17758F98DB19A085
:103D8800854761A88327C4FD9C43032784FED8DBAD
:103D98008327C4FD9C432167D8D78327C4FD9C4350
:103DA80023A407028327C4FD9C43945F8327C4FD93
:103DB8009C43256713070798558F98DF832784FD51
:103DC800D4438327C4FD9843B687BD8B93F6F70F7A
:103DD8001C5FBD8AC19BD58F1CDF832584FD03250D
:103DE800C4FD19338327C4FD9C431307300FD8D370
:103DF8008327C4FD98438327C4FE93F7F70393F6FC
:103E0800F70F1C5393F6F60393F707FCD58F1CD3D3
:103E18008327C4FD0547D8CF81473E85B250225439
:103E280045618280397122DE80002326A4FC232488
:103E3800B4FC8327C4FC9C431307F00723A2E708BC
:103E48008327C4FC9843832784FC93F7F70393F6EE
:103E5800F70F8327070893F6F60393F707FCD58F28
:103E68002320F7088327C4FC9C4383A70708BD8346
:103E7800858B819F2326F4FE8327C4FEE5F78327DD
:103E8800C4FC9C4383A74709B983858B819F23245E
:103E9800F4FE8327C4FC9C4383A74709B583858B1D
:103EA800819F2322F4FE032784FE8547631BF708BE
:103EB8008327C4FC9C4383A70709A19F232EF4FCF6
:103EC8008327C4FC9C4383A747093E878967FD175E
:103ED800F98FA19F232CF4FC8327C4FD2320F4FE33
:103EE800832784FDC207232CF4FC032704FE8327C1
:103EF80084FDD98F2320F4FE8327C4FC9C53032719
:103F080004FE98C7032704FEB7070080D98F232033
:103F1800F4FE032744FE8547631FF700032704FECA
:103F2800B7070040D98F2320F4FE8327C4FC9C5395
:103F38000D4798C3ADA08327C4FC9C53054798C37D
:103F4800B9A88327C4FC9C4383A747093E87896790
:103F5800FD17F98FA19F2320F4FE832704FE898390
:103F68002320F4FE8327C4FC9C53032704FE98C730
:103F7800032744FE8547631FF700032704FEB7079E
:103F88000040D98F2320F4FE8327C4FC9C530947A3
:103F980098C331A08327C4FC9C5323A00700832720
:103FA800C4FC9C4383A78709BD8B13F7F70F8327AE
:103FB800C4FC9C53D8C38327C4FC98438327C4FC00
:103FC8009C530327C709019FD8A78327C4FC98439C
:103FD8008327C4FC9C530327C70921837D9B019F2A
:103FE800D8B78327C4FC98438327C4FC9C53032772
:103FF800070A019FF8A78327C4FC98438327C4FCBA
:104008009C530327070A21837D9B019FF8B78327C9
:10401800C4FC98438327C4FC9C530327470A019F89
:1040280098AB8327C4FC98438327C4FC9C5303277D
:10403800470A21837D9B019F98BB8327C4FC984333
:104048008327C4FC9C530327870A019FB8AB8327A7
:10405800C4FC98438327C4FC9C530327870A218305
:104068007D9B019FB8BB81473E8572542161828048
:10407800797122D60018232EA4FC232CB4FC232A01
:10408800C4FC832784FDD843C167FD17F98F232417
:10409800F4FE832784FD9847C167FD17F98F232015
:1040A800F4FE832784FD9C430547638EE704054798
:1040B80063E6E70009476389E70841AA832784FD87
:1040C800DC43139727008967F117F98F2326F4FE3D
:1040D8000327C4FEA167D98F2326F4FE232404FEF8
:1040E800832784FD9C47139727008967F117F98F69
:1040F8002322F4FE032744FEB167D98F2322F4FE5E
:10410800232004FE59A0832784FDDC4313D707012D
:104118008967FD17F98F2326F4FE0327C4FEB167CC
:10412800D98F2326F4FE832784FD9C4713D70701E4
:104138008967FD17F98F2322F4FE032744FEB16730
:10414800D98F2322F4FE91A0832784FDDC4313D763
:1041580007018967FD17F98F2326F4FE0327C4FE9C
:10416800B167D98F2326F4FE832784FD9C4713D794
:1041780007018967FD17F98F2322F4FE032744FE00
:104188009167D98F2322F4FE01008327C4FD9C4345
:104198000327C4FE23AAE7088327C4FD9C430327FB
:1041A80084FE23A8E7088327C4FD9C43032744FE15
:1041B80023A6E7088327C4FD9C43032704FE23A402
:1041C800E7088327C4FD9857E14763F6E70083278C
:1041D800C4FD614798D78327C4FD9C57032744FD36
:1041E800637BF7008327C4FD9C430567130787405B
:1041F80023ACE70809A88327C4FD9C430567130778
:10420800874823ACE7088327C4FD9C431307300F76
:1042180023A2E7088327C4FD9843832744FD93F727
:10422800F70393F6F70F8327070893F6F60393F738
:1042380007FCD58F2320F7088327C4FD98438327DD
:104248000708A166D58F2320F7083254456182807C
:10425800797106D622D40018232EA4FC232CB4FC92
:10426800232AC4FC8327C4FDD84F85476304F7007D
:10427800894791A88327C4FD0D47D8CF8327C4FD5C
:10428800032784FD98D38327C4FD032744FDD8D38F
:1042980085472326F4FE31A88327C4FE3E8683255E
:1042A80044FD0325C4FDE9338327C4FE850723267F
:1042B800F4FE0327C4FEE147E3D0E7FE8327C4FDED
:1042C8000547D8CF81473E85B25022544561828048
:1042D800797122D60018232EA4FC232CB4FC854720
:1042E8002326F4FE832784FDFD170327C4FEB31796
:1042F800F7002326F4FE03A741908327C4FEF98F15
:1043080089CF8327C4FD9C43216723AAE708832715
:10431800C4FD9C4323A807082DA003A781908327E9
:10432800C4FEF98F89CF8327C4FD9C43316723AA34
:10433800E7088327C4FD9C4323A8070819A08547DD
:10434800BDA08327C4FD9C43316723A6E7088327C4
:10435800C4FD9C4323A407088327C4FD9C43056729
:104368001307874823ACE7088327C4FD9C4313073A
:10437800300F23A2E7088327C4FD9843832784FDD1
:1043880093F7F70393F6F70F8327070893F6F603D7
:1043980093F707FCD58F2320F7088327C4FD98439C
:1043A80083270708A166D58F2320F70881473E8514
:1043B800325445618280797122D60018232EA4FCDC
:1043C800232CB4FC8327C4FD9C431307F00723A2C6
:1043D800E7088327C4FD9843832784FD93F7F703F1
:1043E80093F6F70F8327070893F6F60393F707FC6E
:1043F800D58F2320F7088327C4FD9C4383A707088C
:10440800BD83858B819F2326F4FE8327C4FEE5F7B1
:1044180081473E85325445618280011106CE22CC07
:1044280000102326A4FE2324B4FE832584FE03253E
:10443800C4FE5137832784FEFD17138701E28A07DC
:10444800BA9723A007008327C4FE9C5B99C78327DC
:10445800C4FE9C5B0325C4FE82970100F2406244BF
:1044680005618280011106CE22CC00102326A4FE0D
:104478002324B4FE832584FE0325C4FE65328327E6
:10448800C4FEDC5B99C78327C4FEDC5B0325C4FE3E
:1044980082970100F240624405618280397106DE2C
:1044A80022DC80002326A4FC8327C4FC2326F4FEF8
:1044B8008327C4FE9C439C4B2324F4FE032784FEDD
:1044C800A1676319F7048327C4FE9C43DC439D83DB
:1044D800858B819F232CF4FC032784FD854763107B
:1044E800F7028327C4FE98431C4393E717001CC3B5
:1044F80001008327C4FE98431C43F99B1CC38327F0
:10450800C4FE9C5FC1C78327C4FE9C5F0325C4FE0D
:104518008297ADA8832784FEB5CB032784FE930733
:10452800000263E5E7068327C4FE9C4383A70714BC
:10453800A19F2322F4FE8327C4FE9C4383A747142C
:10454800A19F2320F4FE832744FE232EF4FC832717
:1045580004FEC2070327C4FDD98F232EF4FC03A74A
:10456800C1908327C4FDF98F91C7832584FE032555
:10457800C4FE653503A701918327C4FDF98F99C748
:10458800832584FE0325C4FEF13D01000100F2509D
:10459800625421618280011122CE00102326A4FEDC
:1045A8002324B4FE2322C4FE832784FE0547638F99
:1045B800E700054763E6E7000947638FE7001DA0AA
:1045C8008327C4FE032744FE98DB39A88327C4FE4B
:1045D800032744FED8DB09A88327C4FE032744FE2B
:1045E80098DF19A0854711A081473E85724405616F
:1045F8008280411122C60008B7071010F843C1672E
:10460800F917B376F700B7071010370751EA36974E
:10461800F8C30100324441018280411122C60008DA
:10462800B7071010F843C167FD17F98F93E6170015
:10463800B7071010370751EA3697F8C3010032441C
:1046480041018280011122CE00102326A4FE832777
:10465800C4FE91C70327C4FE85476314F700854746
:1046680011A08147858B819F3E85724405618280B8
:10467800011122CE00102326A4FE8327C4FE93B77F
:104688008700819F3E85724405618280011122CE98
:1046980000102326A4FE8327C4FE93B78700819FBA
:1046A8003E85724405618280011122CE00102326C6
:1046B800A4FE8327C4FE93B78700819F3E8572447A
:1046C80005618280011122CE00102326A4FE8327D3
:1046D800C4FE93B70708819F3E85724405618280B6
:1046E800011122CE00102326A4FE8327C4FE99CBF5
:1046F8000327C4FE85476307F7000327C4FE8947DD
:104708006314F700854711A08147858B819F3E85FB
:10471800724405618280011122CE00102326A4FE76
:104728008327C4FE91C70327C4FE85476314F70097
:10473800854711A08147858B819F3E85724405611D
:104748008280011122CE00102326A4FE8327C4FEF6
:1047580093B70704819F3E857244056182800111E9
:1047680022CE00102326A4FE8327C4FE85C3032778
:10477800C4FE8547630CF7000327C4FE8947630717
:10478800F7000327C4FE8D476314F700854711A07F
:104798008147858B819F3E8572440561828079714E
:1047A80022D60018232EA4FC232CB4FC8327C4FD96
:1047B8002326F4FE832784FD89CB0327C4FE8327A1
:1047C80084FDB357F7022326F4FE0327C4FEB71768
:1047D8003D009387F78F63FCE7000327C4FEB77794
:1047E80072009387070E63E4E700854711A08147AD
:1047F800858B819F3E85325445618280797122D6AE
:104808000018232EA4FC232CB4FC0327C4FDB7C72F
:10481800C9019387073863F4E70081478DA0032710
:1048280084FD9307F00763F4E700814789A803270D
:1048380084FD994763F9E7000327C4FD832784FDB6
:10484800B307F70231A00327C4FD9947B307F7025E
:104858002326F4FE0327C4FEB7E7F5059387F70F71
:1048680063FCE7000327C4FEB7A7E111938707306D
:1048780063E4E700854711A08147858B819F3E85CA
:10488800325445618280797122D60018232EA4FC07
:10489800232CB4FC8327C4FD2326F4FE832784FD40
:1048A80091CB832784FD85070327C4FEB357F702FE
:1048B8002326F4FE0327C4FEB7D7F00893871718FA
:1048C800B337F700819F3E85325445618280797104
:1048D80022D60018232EA4FC232CB4FC8327C4FD65
:1048E8002326F4FE832784FD91CB832784FD850747
:1048F8000327C4FEB357F7022326F4FE0327C4FE9A
:10490800B7E7F50593871710B337F700819F3E8502
:10491800325445618280011122CE00102326A4FE64
:104928008327C4FE85C30327C4FE8547630CF700AD
:104938000327C4FE89476307F7000327C4FE8D4792
:104948006314F700854711A08147858B819F3E85B9
:10495800724405618280011122CE00102326A4FE34
:104968008327C4FE85C30327C4FE8547630CF7006D
:104978000327C4FE89476307F7000327C4FE8D4752
:104988006314F700854711A08147858B819F3E8579
:10499800724405618280011106CE22CC00102326C4
:1049A800A4FE2324B4FE0327C4FEB7070010630A3D
:1049B800F70093059069B71701031385C7D9212D0F
:1049C80001A0032584FE293BAA8793C71700819F6E
:1049D80089CB9305A069B71701031385C7D9E52BC0
:1049E80039A8832784FE8D8B93F6F70F0327C4FE1F
:1049F800832707108D8AF19BD58F2320F710F2406B
:104A0800624405618280797106D622D40018232E6B
:104A1800A4FC8327C4FD89EB9305C007B7170103DE
:104A2800138587DB4D2B01A08327C4FD9843B70767
:104A38000010630AF7009305D007B7170103138521
:104A480087DB512B01A08327C4FDDC433E85DD3E77
:104A5800AA8793C71700819F91CB9305F007B717D3
:104A68000103138587DB852B854799AC8327C4FD14
:104A78009C473E85F53EAA8793C71700819F91CB37
:104A880093050008B7170103138587DBA92385471A
:104A980005AC8327C4FDDC473E852D31AA8793C723
:104AA8001700819F91CB93051008B7170103138551
:104AB80087DB1523854729A48327C4FD9C4B3E85A6
:104AC800F136AA8793C71700819F91CB93052008D9
:104AD800B7170103138587DBFD298547D5A28327EF
:104AE800C4FDDC4F3E85C936AA8793C71700819F4E
:104AF80091CB93053008B7170103138587DBE129AC
:104B080085477DAA8327C4FD9C533E852931AA8702
:104B180093C71700819F91CB93055008B7170103DE
:104B2800138587DB4D29854761AA8327C4FDDC539C
:104B38003E850139AA8793C71700819F91CB9305BA
:104B48006008B7170103138587DB712185478DAA94
:104B58008327C4FD9C4F3E856136AA8793C71700FB
:104B6800819F91CB93057008B7170103138587DBE5
:104B78009D218547B1A2B7170010938747F00D67AD
:104B88001307E70698C38327C4FD9C432326F4FE36
:104B98000327C4FE23A0E1EA0325C4FDEF001001AA
:104BA800AA8799C3854729AAA9348327C4FDDC436A
:104BB800858B93F6F70F0327C4FE1C43858AF99B60
:104BC800D58F1CC38327C4FD9C47BD8B93F6F70F75
:104BD8000327C4FE5C43BD8AC19BD58F5CC3832772
:104BE800C4FDDC4793F6F70F0327C4FE1C4793F672
:104BF800F60F93F707F0D58F1CC78327C4FD9C4B8E
:104C0800BD8B93F6F70F0327C4FE5C47BD8AC19B93
:104C1800D58F5CC78327C4FDDC4FBD8B93F6F70F98
:104C28000327C4FE5C47BD8A920693F7F7F0D58F39
:104C38005CC70327C4FE1C4BF99B1CCB01008327D0
:104C4800C4FEDC4F858B13F7F70F8547E319F7FE92
:104C5800E9320325C4FDEF009001AA8799C385476F
:104C680085A001000327C4FE8567BA9783A707F1CB
:104C7800858B13F7F70F8547E316F7FE8327C4FDE7
:104C8800DC5393F7F70393F6F70F0327C4FE832744
:104C9800C71093F6F60393F707FCD58F2326F71072
:104CA8008327C4FD9C53858B93F6F70F0327C4FE17
:104CB80083278710858AF99BD58F2324F71081478E
:104CC8003E85B250225445618280797106D622D43D
:104CD8000018232EA4FC8327C4FD89EB93057010CC
:104CE800B7170103138587DBFD2401A08327C4FDC3
:104CF8009843B7070010630AF70093058010B717A9
:104D08000103138587DBC12C01A08327C4FD9C4FB9
:104D18003E85F932AA8793C71700819F91CB9305E7
:104D28009010B7170103138587DB7524854705A005
:104D38008327C4FD9C432326F4FE65388327C4FDDE
:104D48009C4FBE850325C4FEB931C13881473E85D5
:104D5800B250225445618280011106CE22CC001047
:104D680083A701EA2326F4FE0327C4FEB707001031
:104D7800630AF7009305F011B7170103138587DB62
:104D8800992C01A08327C4FE9C43858B819F3E8577
:104D9800EF0000732324A4FE8327C4FEDC43BD8BED
:104DA800819F3E85EF0060742A87832784FEB3D7EE
:104DB800E7022324F4FE8327C4FE9C47819F3E8597
:104DC800EF0080752322A4FE832744FE194763F36E
:104DD800E7009947032784FEB307F7022324F4FE6C
:104DE800832784FE3E85F24062440561828001117A
:104DF80006CE22CC001083A701EA2324F4FE032761
:104E080084FEB7070010630AF70093054013B7172D
:104E18000103138587DBC12201A03D3F2326A4FEA1
:104E2800832784FEDC47BD8B819F3E85EF00E072BF
:104E38002322A4FE832744FE89CB0327C4FE8327AD
:104E480044FEB357F7022326F4FE8327C4FE3E85AB
:104E5800F240624405618280011106CE22CC001026
:104E680083A701EA2324F4FE032784FEB707001072
:104E7800630AF70093059014B7170103138587DBBE
:104E8800992A01A0832784FE83A707108D8B819F11
:104E98002322F4FE832744FE05476380E702054783
:104EA80063E6E70009476381E7021DA0B7877D0134
:104EB800938707842326F4FE15A0B7C7C9019387F3
:104EC80007382326F4FE19A81D372326A4FE39A087
:104ED800A167938707D02326F4FE01008327C4FE29
:104EE8003E85F240624405618280797106D622D4FB
:104EF8000018232EA4FC8327C4FD89EB93056016B4
:104F0800B7170103138587DBF92001A003A701EA7E
:104F1800B7070010630AF70093057016B717010367
:104F2800138587DB4D2801A0053F2324A4FEA16734
:104F3800938707D02326F4FE0325C4FD7D2C232266
:104F4800A4FE832744FE81E78327C4FE41A083276C
:104F580044FEDC4319476360F70613972700B71729
:104F68000103938747DFBA979C438287832584FE92
:104F7800032544FE69242326A4FE3DA8832784FE36
:104F88002326F4FE15A883A701EA9C43858B819FFD
:104F98003E853D232326A4FE05A07D3D2320A4FEB7
:104FA800653BAA87032604FEBE85032544FED52457
:104FB8002326A4FE11A001008327C4FE91E7A16760
:104FC800938707D02326F4FE8327C4FE3E85B2507C
:104FD8002254456182806FD01FD6797106D622D4BB
:104FE8000018232EA4FC232CB4FC8327C4FD89EBD2
:104FF8009305E019B7170103138587DBE93F01A083
:1050080003A701EAB7070010630AF7009305F01930
:10501800B7170103138587DB7D3F01A0032784FDB4
:105028008547630EF700832784FD91CB9305101AFB
:10503800B7170103138587DB793F854785A00325CB
:10504800C4FD652A2326A4FE8327C4FE99C78327A7
:10505800C4FED843994763F4E700854781A08327B6
:10506800C4FED4431387419193074002B387F602E5
:10507800BA979C4799E3854715A08327C4FED44374
:105088001387419193074002B387F602BA979C476A
:10509800832584FD0325C4FE829781473E85B2504F
:1050A800225445618280797106D622D40018232EB5
:1050B800A4FC232CB4FC8327C4FD89EB9305F01CC6
:1050C800B7170103138587DB393701A003A701EA66
:1050D800B7070010630AF7009305001DB71701030F
:1050E800138587DBCD3D01A00325C4FD3922232686
:1050F800A4FE8327C4FE99C78327C4FED8439947D3
:1051080063F4E700854781A08327C4FED44313874F
:10511800419193074002B387F602BA97DC4799E3B7
:10512800854715A08327C4FED4431387419193076D
:105138004002B387F602BA97DC47832584FD03252E
:10514800C4FE829781473E85B250225445618280D1
:10515800797106D622D40018232EA4FC232CB4FC83
:105168008327C4FD89EB9305E022B7170103138554
:1051780087DB953501A003A701EAB7070010630A8A
:10518800F7009305F022B7170103138587DBA135D4
:1051980001A00325C4FD95202326A4FE8327C4FE71
:1051A80099C78327C4FED843994763F4E700854726
:1051B80081A08327C4FED4431387419193074002FB
:1051C800B387F602BA979C4B99E3854715A08327C6
:1051D800C4FED4431387419193074002B387F60274
:1051E800BA979C4B832584FD0325C4FE829781478B
:1051F8003E85B2502254456182806FB07FFD79713F
:1052080006D622D40018232EA4FC232CB4FC832712
:10521800C4FD89EB9305F02AB7170103138587DBD3
:105228005D3B01A083A701EA89EB9305002BB71723
:105238000103138587DB453301A08327C4FDDC43C5
:1052480095E38327C4FDD843930740023307F70249
:1052580093874191BA972326F4FE8327C4FEDC4F37
:1052680091E719A081470DA0814739A88327C4FE7B
:10527800DC4F0325C4FD82972324A4FE032784FD65
:10528800832784FEB357F7003E85B2502254456108
:105298008280397106DE22DC80002326A4FC2324C8
:1052A800B4FC2322C4FC8327C4FC89EB9305C02CDF
:1052B800B7170103138587DB393B01A083A701EAF0
:1052C80089EB9305D02CB7170103138587DB2133AE
:1052D80001A0232604FE8327C4FCD8439307400279
:1052E8003307F70293874191BA972324F4FE832763
:1052F80084FEDC4F99E381476DA0832784FEDC4F51
:105308000325C4FC82972322A4FE032744FE8D476D
:105318006317F700832744FC2326F4FEB1A88327EC
:1053280044FE81EBB7877D01938707842326F4FE2B
:10533800A1A0032744FE85476319F700B7C7C90131
:10534800938707382326F4FE05A8032744FE8947D8
:105358006314F70283A701EADC479183BD8B819F21
:105368003E85E52A2320A4FE032784FC832704FE28
:10537800B357F7022326F4FE832784FE9C5399E350
:10538800814705A0832784FE9C530325C4FC82978C
:10539800232EA4FC8327C4FD85070327C4FEB35727
:1053A800F7023E85F250625421618280797106D6F7
:1053B80022D40018232EA4FC8327C4FDDC433E8599
:1053C80001222326A4FE8327C4FD9C473E85312A5B
:1053D8002324A4FE832584FE0325C4FEEFF02FBCFE
:1053E800AA8793C71700819F99C38547A5A8032754
:1053F800C4FE832784FEB357F7022326F4FE8327CF
:10540800C4FDDC47BE850325C4FEEFF02FBFAA8785
:1054180093C71700819F99C38547A9A08327C4FD17
:10542800DC47194763F3E70099470327C4FEB3072E
:10543800F7022326F4FE8327C4FD9C4BBE85032573
:10544800C4FEEFF04FC4AA8789CF8327C4FDDC4F81
:10545800BE850325C4FEEFF08FC7AA8799C381478D
:1054680011A085473E85B2502254456182807971EA
:1054780022D60018232EA4FC8327C4FD9C5391E751
:10548800B7877D019387078429A0B7C7C901938788
:1054980007382326F4FE8327C4FDDC53850703273A
:1054A800C4FE3357F702B7470F00938707246314E6
:1054B800F700814711A085473E85325445618280B7
:1054C800011122CE00102326A4FE8327C4FE91E7F3
:1054D800B7877D019387078429A0B7C7C901938738
:1054E80007383E85724405618280797122D600189A
:1054F800232EA4FC8327C4FD89E785472326F4FED1
:1055080031A08327C4FD85072326F4FE8327C4FE24
:105518003E85325445618280797122D60018232E47
:10552800A4FC8327C4FD2326F4FE0327C4FE954765
:1055380063E5E70099472326F4FE0327C4FE930793
:10554800F00763F6E7009307F0072326F4FE8327A6
:10555800C4FE3E85325445618280797122D6001896
:10556800232EA4FC8327C4FD2326F4FE0327C4FEB0
:105578009D4763F6E700A1472326F4FE31A0832761
:10558800C4FE85072326F4FE8327C4FE3E853254D5
:1055980045618280797106D622D40018232EA4FC96
:1055A800232CB4FC8327C4FD89EB9305A036B717D9
:1055B8000103138587DB053401A083A701EA89EB82
:1055C8009305B036B7170103138587DB293401A08B
:1055D80083A701EA2326F4FE8327C4FD9E273E877E
:1055E8008327C4FEBA972324F4FE832784FD858B82
:1055F80099CF032784FE1C4393E717001CC3032796
:1056080084FE1C43C176FD16F58F1CC321A8032711
:1056180084FE1C43F99B1CC3032784FE1C43C166FC
:10562800D58F1CC30100B250225445618280797124
:1056380006D622D40018232EA4FC8327C4FD89EBA8
:1056480093050038B7170103138587DB693201A07A
:1056580083A701EA89EB93051038B717010313856F
:1056680087DB953A01A083A701EA2326F4FE832766
:10567800C4FD9E273E878327C4FEBA972324F4FEE1
:10568800832784FE9C43858B819F3E85B25022549C
:1056980045618280797106D622D40018232EA4FC95
:1056A800232CB4FC8327C4FD89EB93050039B71775
:1056B8000103138587DB053201A083A701EA89EB83
:1056C80093051039B7170103138587DB293201A029
:1056D80083A701EA2326F4FE8327C4FD9E273E877D
:1056E8008327C4FEBA972324F4FE832784FD858B81
:1056F80093F6F70F032784FE1C43858AC20641767A
:105708007D16F18FD58F1CC30100B250225445611C
:105718008280797106D622D40018232EA4FC832710
:10572800C4FD89EB9305003AB7170103138587DB9E
:10573800012501A083A701EA89EB9305103AB71761
:105748000103138587DBED2301A083A701EA232644
:10575800F4FE8327C4FD9E273E878327C4FEBA979D
:105768002324F4FE832784FE9C43C183858B819F79
:105778003E85B250225445618280797106D622D482
:105788000018232EA4FC232CB4FC8327C4FD89EB2A
:105798009305103BB7170103138587DB512B01A035
:1057A80083A701EA89EB9305203BB717010313850B
:1057B80087DBBD2B01A0032584FDEFE05FFAAA87F4
:1057C80093C71700819F89CB9305303BB717010317
:1057D800138587DBB12B35A883A701EA2326F4FEBE
:1057E8008327C4FD9E273E878327C4FEBA972324B8
:1057F800F4FE832784FD8D8B93F6F70F032784FE31
:105808001C438D8AE206370600FD7D16F18FD58F81
:105818001CC3B250225445618280797106D622D4C5
:105828000018232EA4FC8327C4FD89EB9305103CA4
:10583800B7170103138587DBE52901A083A701EAD0
:1058480089EB9305203CB7170103138587DBCD212E
:1058580001A083A701EA2326F4FE8327C4FD9E271F
:105868003E878327C4FEBA972324F4FE832784FE49
:105878009C43E1838D8B819F3E85B25022544561C4
:105888008280797106D622D40018232EA4FC232CFA
:10589800B4FC8327C4FD89EB9305103DB7170103BA
:1058A800138587DB712101A083A701EA89EB9305A2
:1058B800203DB7170103138587DB9D2901A083A726
:1058C80001EA2326F4FE8327C4FD9E273E8783270B
:1058D800C4FEBA972324F4FE832784FE9C43232224
:1058E800F4FE832784FD858BC1C7832744FEA19FCF
:1058F8001397070141878327C4FDBC27BE868547C8
:10590800B397D700C207C187D98FC207C1879396BB
:105918000701C182832744FE41677D17758FC176D1
:10592800F58FD98F2322F4FE832744FEC183A19FDC
:105938001397070141878327C4FDBC27BE86854787
:10594800B397D700C207C18793C7F7FFC207C187BC
:10595800F98FC207C187139707014183832744FE44
:105968004207C166FD16F58FD98F2322F4FE59A090
:10597800832744FEA19F1397070141878327C4FD0E
:10598800BC27BE868547B397D700C207C18793C790
:10599800F7FFC207C187F98FC207C187939607012E
:1059A800C182832744FE41677D17758FC176F58FC5
:1059B800D98F2322F4FE832744FEC183A19F139726
:1059C800070141878327C4FDBC27BE868547B39757
:1059D800D700C207C187D98FC207C18713970701AC
:1059E8004183832744FE4207C166FD16F58FD98F90
:1059F8002322F4FE032744FE832784FE98C3010074
:105A0800B250225445618280797106D622D400189A
:105A1800232EA4FC8327C4FD89EB9305903EB7177A
:105A28000103138587DB292601A083A701EA89EBF7
:105A38009305A03EB7170103138587DBD52C01A07A
:105A480083A701EA2326F4FE8327C4FD9E273E8709
:105A58008327C4FEBA972324F4FE832784FE9C433D
:105A68002322F4FE832744FEA19F3E878327C4FD9B
:105A7800BC27B357F740858BB337F000819F3E852D
:105A8800B250225445618280797106D622D400181A
:105A9800232EA4FC232CB4FC8327C4FD89EB930597
:105AA800D03FB7170103138587DB592401A083A7CB
:105AB80001EA89EB9305E03FB7170103138587DBFC
:105AC800852C01A083A701EA2326F4FE8327C4FDC1
